{
  "_format": "hh-sol-artifact-1",
  "contractName": "RogueReindeerNFTS",
  "sourceName": "contracts/RRNFTContract.sol",
  "abi": [
    {
      "inputs": [
        {
          "internalType": "string",
          "name": "_name",
          "type": "string"
        },
        {
          "internalType": "string",
          "name": "_symbol",
          "type": "string"
        },
        {
          "internalType": "string",
          "name": "_initBaseURI",
          "type": "string"
        }
      ],
      "stateMutability": "nonpayable",
      "type": "constructor"
    },
    {
      "anonymous": false,
      "inputs": [
        {
          "indexed": true,
          "internalType": "address",
          "name": "owner",
          "type": "address"
        },
        {
          "indexed": true,
          "internalType": "address",
          "name": "approved",
          "type": "address"
        },
        {
          "indexed": true,
          "internalType": "uint256",
          "name": "tokenId",
          "type": "uint256"
        }
      ],
      "name": "Approval",
      "type": "event"
    },
    {
      "anonymous": false,
      "inputs": [
        {
          "indexed": true,
          "internalType": "address",
          "name": "owner",
          "type": "address"
        },
        {
          "indexed": true,
          "internalType": "address",
          "name": "operator",
          "type": "address"
        },
        {
          "indexed": false,
          "internalType": "bool",
          "name": "approved",
          "type": "bool"
        }
      ],
      "name": "ApprovalForAll",
      "type": "event"
    },
    {
      "anonymous": false,
      "inputs": [
        {
          "indexed": true,
          "internalType": "address",
          "name": "previousOwner",
          "type": "address"
        },
        {
          "indexed": true,
          "internalType": "address",
          "name": "newOwner",
          "type": "address"
        }
      ],
      "name": "OwnershipTransferred",
      "type": "event"
    },
    {
      "anonymous": false,
      "inputs": [
        {
          "indexed": true,
          "internalType": "address",
          "name": "from",
          "type": "address"
        },
        {
          "indexed": true,
          "internalType": "address",
          "name": "to",
          "type": "address"
        },
        {
          "indexed": true,
          "internalType": "uint256",
          "name": "tokenId",
          "type": "uint256"
        }
      ],
      "name": "Transfer",
      "type": "event"
    },
    {
      "inputs": [
        {
          "internalType": "address",
          "name": "to",
          "type": "address"
        },
        {
          "internalType": "uint256",
          "name": "tokenId",
          "type": "uint256"
        }
      ],
      "name": "approve",
      "outputs": [],
      "stateMutability": "nonpayable",
      "type": "function"
    },
    {
      "inputs": [
        {
          "internalType": "address",
          "name": "owner",
          "type": "address"
        }
      ],
      "name": "balanceOf",
      "outputs": [
        {
          "internalType": "uint256",
          "name": "",
          "type": "uint256"
        }
      ],
      "stateMutability": "view",
      "type": "function"
    },
    {
      "inputs": [],
      "name": "baseExtension",
      "outputs": [
        {
          "internalType": "string",
          "name": "",
          "type": "string"
        }
      ],
      "stateMutability": "view",
      "type": "function"
    },
    {
      "inputs": [],
      "name": "baseURI",
      "outputs": [
        {
          "internalType": "string",
          "name": "",
          "type": "string"
        }
      ],
      "stateMutability": "view",
      "type": "function"
    },
    {
      "inputs": [],
      "name": "cost",
      "outputs": [
        {
          "internalType": "uint256",
          "name": "",
          "type": "uint256"
        }
      ],
      "stateMutability": "view",
      "type": "function"
    },
    {
      "inputs": [
        {
          "internalType": "uint256",
          "name": "tokenId",
          "type": "uint256"
        }
      ],
      "name": "getApproved",
      "outputs": [
        {
          "internalType": "address",
          "name": "",
          "type": "address"
        }
      ],
      "stateMutability": "view",
      "type": "function"
    },
    {
      "inputs": [
        {
          "internalType": "address",
          "name": "owner",
          "type": "address"
        },
        {
          "internalType": "address",
          "name": "operator",
          "type": "address"
        }
      ],
      "name": "isApprovedForAll",
      "outputs": [
        {
          "internalType": "bool",
          "name": "",
          "type": "bool"
        }
      ],
      "stateMutability": "view",
      "type": "function"
    },
    {
      "inputs": [],
      "name": "maxMintAmount",
      "outputs": [
        {
          "internalType": "uint256",
          "name": "",
          "type": "uint256"
        }
      ],
      "stateMutability": "view",
      "type": "function"
    },
    {
      "inputs": [],
      "name": "maxSupply",
      "outputs": [
        {
          "internalType": "uint256",
          "name": "",
          "type": "uint256"
        }
      ],
      "stateMutability": "view",
      "type": "function"
    },
    {
      "inputs": [
        {
          "internalType": "address",
          "name": "_to",
          "type": "address"
        },
        {
          "internalType": "uint256",
          "name": "_mintAmount",
          "type": "uint256"
        }
      ],
      "name": "mint",
      "outputs": [],
      "stateMutability": "payable",
      "type": "function"
    },
    {
      "inputs": [],
      "name": "name",
      "outputs": [
        {
          "internalType": "string",
          "name": "",
          "type": "string"
        }
      ],
      "stateMutability": "view",
      "type": "function"
    },
    {
      "inputs": [],
      "name": "owner",
      "outputs": [
        {
          "internalType": "address",
          "name": "",
          "type": "address"
        }
      ],
      "stateMutability": "view",
      "type": "function"
    },
    {
      "inputs": [
        {
          "internalType": "uint256",
          "name": "tokenId",
          "type": "uint256"
        }
      ],
      "name": "ownerOf",
      "outputs": [
        {
          "internalType": "address",
          "name": "",
          "type": "address"
        }
      ],
      "stateMutability": "view",
      "type": "function"
    },
    {
      "inputs": [
        {
          "internalType": "bool",
          "name": "_state",
          "type": "bool"
        }
      ],
      "name": "pause",
      "outputs": [],
      "stateMutability": "nonpayable",
      "type": "function"
    },
    {
      "inputs": [],
      "name": "paused",
      "outputs": [
        {
          "internalType": "bool",
          "name": "",
          "type": "bool"
        }
      ],
      "stateMutability": "view",
      "type": "function"
    },
    {
      "inputs": [
        {
          "internalType": "address",
          "name": "_user",
          "type": "address"
        }
      ],
      "name": "removeWhitelistUser",
      "outputs": [],
      "stateMutability": "nonpayable",
      "type": "function"
    },
    {
      "inputs": [],
      "name": "renounceOwnership",
      "outputs": [],
      "stateMutability": "nonpayable",
      "type": "function"
    },
    {
      "inputs": [
        {
          "internalType": "address",
          "name": "from",
          "type": "address"
        },
        {
          "internalType": "address",
          "name": "to",
          "type": "address"
        },
        {
          "internalType": "uint256",
          "name": "tokenId",
          "type": "uint256"
        }
      ],
      "name": "safeTransferFrom",
      "outputs": [],
      "stateMutability": "nonpayable",
      "type": "function"
    },
    {
      "inputs": [
        {
          "internalType": "address",
          "name": "from",
          "type": "address"
        },
        {
          "internalType": "address",
          "name": "to",
          "type": "address"
        },
        {
          "internalType": "uint256",
          "name": "tokenId",
          "type": "uint256"
        },
        {
          "internalType": "bytes",
          "name": "_data",
          "type": "bytes"
        }
      ],
      "name": "safeTransferFrom",
      "outputs": [],
      "stateMutability": "nonpayable",
      "type": "function"
    },
    {
      "inputs": [
        {
          "internalType": "address",
          "name": "operator",
          "type": "address"
        },
        {
          "internalType": "bool",
          "name": "approved",
          "type": "bool"
        }
      ],
      "name": "setApprovalForAll",
      "outputs": [],
      "stateMutability": "nonpayable",
      "type": "function"
    },
    {
      "inputs": [
        {
          "internalType": "string",
          "name": "_newBaseExtension",
          "type": "string"
        }
      ],
      "name": "setBaseExtension",
      "outputs": [],
      "stateMutability": "nonpayable",
      "type": "function"
    },
    {
      "inputs": [
        {
          "internalType": "string",
          "name": "_newBaseURI",
          "type": "string"
        }
      ],
      "name": "setBaseURI",
      "outputs": [],
      "stateMutability": "nonpayable",
      "type": "function"
    },
    {
      "inputs": [
        {
          "internalType": "uint256",
          "name": "_newCost",
          "type": "uint256"
        }
      ],
      "name": "setCost",
      "outputs": [],
      "stateMutability": "nonpayable",
      "type": "function"
    },
    {
      "inputs": [
        {
          "internalType": "uint256",
          "name": "_newmaxMintAmount",
          "type": "uint256"
        }
      ],
      "name": "setmaxMintAmount",
      "outputs": [],
      "stateMutability": "nonpayable",
      "type": "function"
    },
    {
      "inputs": [
        {
          "internalType": "bytes4",
          "name": "interfaceId",
          "type": "bytes4"
        }
      ],
      "name": "supportsInterface",
      "outputs": [
        {
          "internalType": "bool",
          "name": "",
          "type": "bool"
        }
      ],
      "stateMutability": "view",
      "type": "function"
    },
    {
      "inputs": [],
      "name": "symbol",
      "outputs": [
        {
          "internalType": "string",
          "name": "",
          "type": "string"
        }
      ],
      "stateMutability": "view",
      "type": "function"
    },
    {
      "inputs": [
        {
          "internalType": "uint256",
          "name": "index",
          "type": "uint256"
        }
      ],
      "name": "tokenByIndex",
      "outputs": [
        {
          "internalType": "uint256",
          "name": "",
          "type": "uint256"
        }
      ],
      "stateMutability": "view",
      "type": "function"
    },
    {
      "inputs": [
        {
          "internalType": "address",
          "name": "owner",
          "type": "address"
        },
        {
          "internalType": "uint256",
          "name": "index",
          "type": "uint256"
        }
      ],
      "name": "tokenOfOwnerByIndex",
      "outputs": [
        {
          "internalType": "uint256",
          "name": "",
          "type": "uint256"
        }
      ],
      "stateMutability": "view",
      "type": "function"
    },
    {
      "inputs": [
        {
          "internalType": "uint256",
          "name": "tokenId",
          "type": "uint256"
        }
      ],
      "name": "tokenURI",
      "outputs": [
        {
          "internalType": "string",
          "name": "",
          "type": "string"
        }
      ],
      "stateMutability": "view",
      "type": "function"
    },
    {
      "inputs": [],
      "name": "totalSupply",
      "outputs": [
        {
          "internalType": "uint256",
          "name": "",
          "type": "uint256"
        }
      ],
      "stateMutability": "view",
      "type": "function"
    },
    {
      "inputs": [
        {
          "internalType": "address",
          "name": "from",
          "type": "address"
        },
        {
          "internalType": "address",
          "name": "to",
          "type": "address"
        },
        {
          "internalType": "uint256",
          "name": "tokenId",
          "type": "uint256"
        }
      ],
      "name": "transferFrom",
      "outputs": [],
      "stateMutability": "nonpayable",
      "type": "function"
    },
    {
      "inputs": [
        {
          "internalType": "address",
          "name": "newOwner",
          "type": "address"
        }
      ],
      "name": "transferOwnership",
      "outputs": [],
      "stateMutability": "nonpayable",
      "type": "function"
    },
    {
      "inputs": [
        {
          "internalType": "address",
          "name": "_owner",
          "type": "address"
        }
      ],
      "name": "walletOfOwner",
      "outputs": [
        {
          "internalType": "uint256[]",
          "name": "",
          "type": "uint256[]"
        }
      ],
      "stateMutability": "view",
      "type": "function"
    },
    {
      "inputs": [
        {
          "internalType": "address",
          "name": "_user",
          "type": "address"
        }
      ],
      "name": "whitelistUser",
      "outputs": [],
      "stateMutability": "nonpayable",
      "type": "function"
    },
    {
      "inputs": [
        {
          "internalType": "address",
          "name": "",
          "type": "address"
        }
      ],
      "name": "whitelisted",
      "outputs": [
        {
          "internalType": "bool",
          "name": "",
          "type": "bool"
        }
      ],
      "stateMutability": "view",
      "type": "function"
    },
    {
      "inputs": [],
      "name": "withdraw",
      "outputs": [],
      "stateMutability": "payable",
      "type": "function"
    }
  ],
  "bytecode": "0x60806040526040518060400160405280600581526020017f2e6a736f6e000000000000000000000000000000000000000000000000000000815250600c908051906020019062000051929190620002c9565b50666a94d74f430000600d55612710600e55600a600f556000601060006101000a81548160ff0219169083151502179055503480156200009057600080fd5b506040516200497f3803806200497f8339818101604052810190620000b69190620003eb565b82828160009080519060200190620000d0929190620002c9565b508060019080519060200190620000e9929190620002c9565b5050506200010c620001006200012660201b60201c565b6200012e60201b60201c565b6200011d81620001f460201b60201c565b50505062000632565b600033905090565b6000600a60009054906101000a900473ffffffffffffffffffffffffffffffffffffffff16905081600a60006101000a81548173ffffffffffffffffffffffffffffffffffffffff021916908373ffffffffffffffffffffffffffffffffffffffff1602179055508173ffffffffffffffffffffffffffffffffffffffff168173ffffffffffffffffffffffffffffffffffffffff167f8be0079c531659141344cd1fd0a4f28419497f9722a3daafe3b4186f6b6457e060405160405180910390a35050565b620002046200012660201b60201c565b73ffffffffffffffffffffffffffffffffffffffff166200022a6200029f60201b60201c565b73ffffffffffffffffffffffffffffffffffffffff161462000283576040517f08c379a00000000000000000000000000000000000000000000000000000000081526004016200027a90620004ce565b60405180910390fd5b80600b90805190602001906200029b929190620002c9565b5050565b6000600a60009054906101000a900473ffffffffffffffffffffffffffffffffffffffff16905090565b828054620002d7906200059e565b90600052602060002090601f016020900481019282620002fb576000855562000347565b82601f106200031657805160ff191683800117855562000347565b8280016001018555821562000347579182015b828111156200034657825182559160200191906001019062000329565b5b5090506200035691906200035a565b5090565b5b80821115620003755760008160009055506001016200035b565b5090565b6000620003906200038a8462000524565b620004f0565b905082815260208101848484011115620003a957600080fd5b620003b684828562000568565b509392505050565b600082601f830112620003d057600080fd5b8151620003e284826020860162000379565b91505092915050565b6000806000606084860312156200040157600080fd5b600084015167ffffffffffffffff8111156200041c57600080fd5b6200042a86828701620003be565b935050602084015167ffffffffffffffff8111156200044857600080fd5b6200045686828701620003be565b925050604084015167ffffffffffffffff8111156200047457600080fd5b6200048286828701620003be565b9150509250925092565b60006200049b60208362000557565b91507f4f776e61626c653a2063616c6c6572206973206e6f7420746865206f776e65726000830152602082019050919050565b60006020820190508181036000830152620004e9816200048c565b9050919050565b6000604051905081810181811067ffffffffffffffff821117156200051a576200051962000603565b5b8060405250919050565b600067ffffffffffffffff82111562000542576200054162000603565b5b601f19601f8301169050602081019050919050565b600082825260208201905092915050565b60005b83811015620005885780820151818401526020810190506200056b565b8381111562000598576000848401525b50505050565b60006002820490506001821680620005b757607f821691505b60208210811415620005ce57620005cd620005d4565b5b50919050565b7f4e487b7100000000000000000000000000000000000000000000000000000000600052602260045260246000fd5b7f4e487b7100000000000000000000000000000000000000000000000000000000600052604160045260246000fd5b61433d80620006426000396000f3fe60806040526004361061020f5760003560e01c806355f804b311610118578063a22cb465116100a0578063d5abeb011161006f578063d5abeb011461077f578063d936547e146107aa578063da3ef23f146107e7578063e985e9c514610810578063f2fde38b1461084d5761020f565b8063a22cb465146106c5578063b88d4fde146106ee578063c668286214610717578063c87b56dd146107425761020f565b806370a08231116100e757806370a08231146105f2578063715018a61461062f5780637f00c7a6146106465780638da5cb5b1461066f57806395d89b411461069a5761020f565b806355f804b3146105365780635c975abb1461055f5780636352211e1461058a5780636c0360eb146105c75761020f565b80632f745c591161019b57806342842e0e1161016a57806342842e0e14610441578063438b63001461046a57806344a0d68a146104a75780634a4c560d146104d05780634f6ccce7146104f95761020f565b80632f745c59146103b557806330cc7ae0146103f25780633ccfd60b1461041b57806340c10f19146104255761020f565b8063095ea7b3116101e2578063095ea7b3146102e257806313faede61461030b57806318160ddd14610336578063239c70ae1461036157806323b872dd1461038c5761020f565b806301ffc9a71461021457806302329a291461025157806306fdde031461027a578063081812fc146102a5575b600080fd5b34801561022057600080fd5b5061023b600480360381019061023691906131cf565b610876565b6040516102489190613bad565b60405180910390f35b34801561025d57600080fd5b50610278600480360381019061027391906131a6565b6108f0565b005b34801561028657600080fd5b5061028f610989565b60405161029c9190613bc8565b60405180910390f35b3480156102b157600080fd5b506102cc60048036038101906102c79190613262565b610a1b565b6040516102d99190613b24565b60405180910390f35b3480156102ee57600080fd5b506103096004803603810190610304919061316a565b610aa0565b005b34801561031757600080fd5b50610320610bb8565b60405161032d9190613e2a565b60405180910390f35b34801561034257600080fd5b5061034b610bbe565b6040516103589190613e2a565b60405180910390f35b34801561036d57600080fd5b50610376610bcb565b6040516103839190613e2a565b60405180910390f35b34801561039857600080fd5b506103b360048036038101906103ae9190613064565b610bd1565b005b3480156103c157600080fd5b506103dc60048036038101906103d7919061316a565b610c31565b6040516103e99190613e2a565b60405180910390f35b3480156103fe57600080fd5b5061041960048036038101906104149190612fff565b610cd6565b005b610423610dad565b005b61043f600480360381019061043a919061316a565b610e69565b005b34801561044d57600080fd5b5061046860048036038101906104639190613064565b610faf565b005b34801561047657600080fd5b50610491600480360381019061048c9190612fff565b610fcf565b60405161049e9190613b8b565b60405180910390f35b3480156104b357600080fd5b506104ce60048036038101906104c99190613262565b6110c9565b005b3480156104dc57600080fd5b506104f760048036038101906104f29190612fff565b61114f565b005b34801561050557600080fd5b50610520600480360381019061051b9190613262565b611226565b60405161052d9190613e2a565b60405180910390f35b34801561054257600080fd5b5061055d60048036038101906105589190613221565b6112bd565b005b34801561056b57600080fd5b50610574611353565b6040516105819190613bad565b60405180910390f35b34801561059657600080fd5b506105b160048036038101906105ac9190613262565b611366565b6040516105be9190613b24565b60405180910390f35b3480156105d357600080fd5b506105dc611418565b6040516105e99190613bc8565b60405180910390f35b3480156105fe57600080fd5b5061061960048036038101906106149190612fff565b6114a6565b6040516106269190613e2a565b60405180910390f35b34801561063b57600080fd5b5061064461155e565b005b34801561065257600080fd5b5061066d60048036038101906106689190613262565b6115e6565b005b34801561067b57600080fd5b5061068461166c565b6040516106919190613b24565b60405180910390f35b3480156106a657600080fd5b506106af611696565b6040516106bc9190613bc8565b60405180910390f35b3480156106d157600080fd5b506106ec60048036038101906106e7919061312e565b611728565b005b3480156106fa57600080fd5b50610715600480360381019061071091906130b3565b61173e565b005b34801561072357600080fd5b5061072c6117a0565b6040516107399190613bc8565b60405180910390f35b34801561074e57600080fd5b5061076960048036038101906107649190613262565b61182e565b6040516107769190613bc8565b60405180910390f35b34801561078b57600080fd5b506107946118d8565b6040516107a19190613e2a565b60405180910390f35b3480156107b657600080fd5b506107d160048036038101906107cc9190612fff565b6118de565b6040516107de9190613bad565b60405180910390f35b3480156107f357600080fd5b5061080e60048036038101906108099190613221565b6118fe565b005b34801561081c57600080fd5b5061083760048036038101906108329190613028565b611994565b6040516108449190613bad565b60405180910390f35b34801561085957600080fd5b50610874600480360381019061086f9190612fff565b611a28565b005b60007f780e9d63000000000000000000000000000000000000000000000000000000007bffffffffffffffffffffffffffffffffffffffffffffffffffffffff1916827bffffffffffffffffffffffffffffffffffffffffffffffffffffffff191614806108e957506108e882611b20565b5b9050919050565b6108f8611c02565b73ffffffffffffffffffffffffffffffffffffffff1661091661166c565b73ffffffffffffffffffffffffffffffffffffffff161461096c576040517f08c379a000000000000000000000000000000000000000000000000000000000815260040161096390613d6a565b60405180910390fd5b80601060006101000a81548160ff02191690831515021790555050565b60606000805461099890614132565b80601f01602080910402602001604051908101604052809291908181526020018280546109c490614132565b8015610a115780601f106109e657610100808354040283529160200191610a11565b820191906000526020600020905b8154815290600101906020018083116109f457829003601f168201915b5050505050905090565b6000610a2682611c0a565b610a65576040517f08c379a0000000000000000000000000000000000000000000000000000000008152600401610a5c90613d4a565b60405180910390fd5b6004600083815260200190815260200160002060009054906101000a900473ffffffffffffffffffffffffffffffffffffffff169050919050565b6000610aab82611366565b90508073ffffffffffffffffffffffffffffffffffffffff168373ffffffffffffffffffffffffffffffffffffffff161415610b1c576040517f08c379a0000000000000000000000000000000000000000000000000000000008152600401610b1390613dca565b60405180910390fd5b8073ffffffffffffffffffffffffffffffffffffffff16610b3b611c02565b73ffffffffffffffffffffffffffffffffffffffff161480610b6a5750610b6981610b64611c02565b611994565b5b610ba9576040517f08c379a0000000000000000000000000000000000000000000000000000000008152600401610ba090613cca565b60405180910390fd5b610bb38383611c76565b505050565b600d5481565b6000600880549050905090565b600f5481565b610be2610bdc611c02565b82611d2f565b610c21576040517f08c379a0000000000000000000000000000000000000000000000000000000008152600401610c1890613dea565b60405180910390fd5b610c2c838383611e0d565b505050565b6000610c3c836114a6565b8210610c7d576040517f08c379a0000000000000000000000000000000000000000000000000000000008152600401610c7490613bea565b60405180910390fd5b600660008473ffffffffffffffffffffffffffffffffffffffff1673ffffffffffffffffffffffffffffffffffffffff168152602001908152602001600020600083815260200190815260200160002054905092915050565b610cde611c02565b73ffffffffffffffffffffffffffffffffffffffff16610cfc61166c565b73ffffffffffffffffffffffffffffffffffffffff1614610d52576040517f08c379a0000000000000000000000000000000000000000000000000000000008152600401610d4990613d6a565b60405180910390fd5b6000601160008373ffffffffffffffffffffffffffffffffffffffff1673ffffffffffffffffffffffffffffffffffffffff16815260200190815260200160002060006101000a81548160ff02191690831515021790555050565b610db5611c02565b73ffffffffffffffffffffffffffffffffffffffff16610dd361166c565b73ffffffffffffffffffffffffffffffffffffffff1614610e29576040517f08c379a0000000000000000000000000000000000000000000000000000000008152600401610e2090613d6a565b60405180910390fd5b3373ffffffffffffffffffffffffffffffffffffffff166108fc479081150290604051600060405180830381858888f19350505050610e6757600080fd5b565b6000610e73610bbe565b9050601060009054906101000a900460ff1615610e8f57600080fd5b60008211610e9c57600080fd5b600f54821115610eab57600080fd5b600e548282610eba9190613f67565b1115610ec557600080fd5b610ecd61166c565b73ffffffffffffffffffffffffffffffffffffffff163373ffffffffffffffffffffffffffffffffffffffff1614610f735760011515601160003373ffffffffffffffffffffffffffffffffffffffff1673ffffffffffffffffffffffffffffffffffffffff16815260200190815260200160002060009054906101000a900460ff16151514610f725781600d54610f659190613fee565b341015610f7157600080fd5b5b5b6000600190505b828111610fa957610f96848284610f919190613f67565b612069565b8080610fa190614164565b915050610f7a565b50505050565b610fca8383836040518060200160405280600081525061173e565b505050565b60606000610fdc836114a6565b905060008167ffffffffffffffff811115611020577f4e487b7100000000000000000000000000000000000000000000000000000000600052604160045260246000fd5b60405190808252806020026020018201604052801561104e5781602001602082028036833780820191505090505b50905060005b828110156110be576110668582610c31565b82828151811061109f577f4e487b7100000000000000000000000000000000000000000000000000000000600052603260045260246000fd5b60200260200101818152505080806110b690614164565b915050611054565b508092505050919050565b6110d1611c02565b73ffffffffffffffffffffffffffffffffffffffff166110ef61166c565b73ffffffffffffffffffffffffffffffffffffffff1614611145576040517f08c379a000000000000000000000000000000000000000000000000000000000815260040161113c90613d6a565b60405180910390fd5b80600d8190555050565b611157611c02565b73ffffffffffffffffffffffffffffffffffffffff1661117561166c565b73ffffffffffffffffffffffffffffffffffffffff16146111cb576040517f08c379a00000000000000000000000000000000000000000000000000000000081526004016111c290613d6a565b60405180910390fd5b6001601160008373ffffffffffffffffffffffffffffffffffffffff1673ffffffffffffffffffffffffffffffffffffffff16815260200190815260200160002060006101000a81548160ff02191690831515021790555050565b6000611230610bbe565b8210611271576040517f08c379a000000000000000000000000000000000000000000000000000000000815260040161126890613e0a565b60405180910390fd5b600882815481106112ab577f4e487b7100000000000000000000000000000000000000000000000000000000600052603260045260246000fd5b90600052602060002001549050919050565b6112c5611c02565b73ffffffffffffffffffffffffffffffffffffffff166112e361166c565b73ffffffffffffffffffffffffffffffffffffffff1614611339576040517f08c379a000000000000000000000000000000000000000000000000000000000815260040161133090613d6a565b60405180910390fd5b80600b908051906020019061134f929190612e23565b5050565b601060009054906101000a900460ff1681565b6000806002600084815260200190815260200160002060009054906101000a900473ffffffffffffffffffffffffffffffffffffffff169050600073ffffffffffffffffffffffffffffffffffffffff168173ffffffffffffffffffffffffffffffffffffffff16141561140f576040517f08c379a000000000000000000000000000000000000000000000000000000000815260040161140690613d0a565b60405180910390fd5b80915050919050565b600b805461142590614132565b80601f016020809104026020016040519081016040528092919081815260200182805461145190614132565b801561149e5780601f106114735761010080835404028352916020019161149e565b820191906000526020600020905b81548152906001019060200180831161148157829003601f168201915b505050505081565b60008073ffffffffffffffffffffffffffffffffffffffff168273ffffffffffffffffffffffffffffffffffffffff161415611517576040517f08c379a000000000000000000000000000000000000000000000000000000000815260040161150e90613cea565b60405180910390fd5b600360008373ffffffffffffffffffffffffffffffffffffffff1673ffffffffffffffffffffffffffffffffffffffff168152602001908152602001600020549050919050565b611566611c02565b73ffffffffffffffffffffffffffffffffffffffff1661158461166c565b73ffffffffffffffffffffffffffffffffffffffff16146115da576040517f08c379a00000000000000000000000000000000000000000000000000000000081526004016115d190613d6a565b60405180910390fd5b6115e46000612087565b565b6115ee611c02565b73ffffffffffffffffffffffffffffffffffffffff1661160c61166c565b73ffffffffffffffffffffffffffffffffffffffff1614611662576040517f08c379a000000000000000000000000000000000000000000000000000000000815260040161165990613d6a565b60405180910390fd5b80600f8190555050565b6000600a60009054906101000a900473ffffffffffffffffffffffffffffffffffffffff16905090565b6060600180546116a590614132565b80601f01602080910402602001604051908101604052809291908181526020018280546116d190614132565b801561171e5780601f106116f35761010080835404028352916020019161171e565b820191906000526020600020905b81548152906001019060200180831161170157829003601f168201915b5050505050905090565b61173a611733611c02565b838361214d565b5050565b61174f611749611c02565b83611d2f565b61178e576040517f08c379a000000000000000000000000000000000000000000000000000000000815260040161178590613dea565b60405180910390fd5b61179a848484846122ba565b50505050565b600c80546117ad90614132565b80601f01602080910402602001604051908101604052809291908181526020018280546117d990614132565b80156118265780601f106117fb57610100808354040283529160200191611826565b820191906000526020600020905b81548152906001019060200180831161180957829003601f168201915b505050505081565b606061183982611c0a565b611878576040517f08c379a000000000000000000000000000000000000000000000000000000000815260040161186f90613daa565b60405180910390fd5b6000611882612316565b905060008151116118a257604051806020016040528060008152506118d0565b806118ac846123a8565b600c6040516020016118c093929190613af3565b6040516020818303038152906040525b915050919050565b600e5481565b60116020528060005260406000206000915054906101000a900460ff1681565b611906611c02565b73ffffffffffffffffffffffffffffffffffffffff1661192461166c565b73ffffffffffffffffffffffffffffffffffffffff161461197a576040517f08c379a000000000000000000000000000000000000000000000000000000000815260040161197190613d6a565b60405180910390fd5b80600c9080519060200190611990929190612e23565b5050565b6000600560008473ffffffffffffffffffffffffffffffffffffffff1673ffffffffffffffffffffffffffffffffffffffff16815260200190815260200160002060008373ffffffffffffffffffffffffffffffffffffffff1673ffffffffffffffffffffffffffffffffffffffff16815260200190815260200160002060009054906101000a900460ff16905092915050565b611a30611c02565b73ffffffffffffffffffffffffffffffffffffffff16611a4e61166c565b73ffffffffffffffffffffffffffffffffffffffff1614611aa4576040517f08c379a0000000000000000000000000000000000000000000000000000000008152600401611a9b90613d6a565b60405180910390fd5b600073ffffffffffffffffffffffffffffffffffffffff168173ffffffffffffffffffffffffffffffffffffffff161415611b14576040517f08c379a0000000000000000000000000000000000000000000000000000000008152600401611b0b90613c2a565b60405180910390fd5b611b1d81612087565b50565b60007f80ac58cd000000000000000000000000000000000000000000000000000000007bffffffffffffffffffffffffffffffffffffffffffffffffffffffff1916827bffffffffffffffffffffffffffffffffffffffffffffffffffffffff19161480611beb57507f5b5e139f000000000000000000000000000000000000000000000000000000007bffffffffffffffffffffffffffffffffffffffffffffffffffffffff1916827bffffffffffffffffffffffffffffffffffffffffffffffffffffffff1916145b80611bfb5750611bfa82612555565b5b9050919050565b600033905090565b60008073ffffffffffffffffffffffffffffffffffffffff166002600084815260200190815260200160002060009054906101000a900473ffffffffffffffffffffffffffffffffffffffff1673ffffffffffffffffffffffffffffffffffffffff1614159050919050565b816004600083815260200190815260200160002060006101000a81548173ffffffffffffffffffffffffffffffffffffffff021916908373ffffffffffffffffffffffffffffffffffffffff160217905550808273ffffffffffffffffffffffffffffffffffffffff16611ce983611366565b73ffffffffffffffffffffffffffffffffffffffff167f8c5be1e5ebec7d5bd14f71427d1e84f3dd0314c0f7b2291e5b200ac8c7c3b92560405160405180910390a45050565b6000611d3a82611c0a565b611d79576040517f08c379a0000000000000000000000000000000000000000000000000000000008152600401611d7090613caa565b60405180910390fd5b6000611d8483611366565b90508073ffffffffffffffffffffffffffffffffffffffff168473ffffffffffffffffffffffffffffffffffffffff161480611df357508373ffffffffffffffffffffffffffffffffffffffff16611ddb84610a1b565b73ffffffffffffffffffffffffffffffffffffffff16145b80611e045750611e038185611994565b5b91505092915050565b8273ffffffffffffffffffffffffffffffffffffffff16611e2d82611366565b73ffffffffffffffffffffffffffffffffffffffff1614611e83576040517f08c379a0000000000000000000000000000000000000000000000000000000008152600401611e7a90613d8a565b60405180910390fd5b600073ffffffffffffffffffffffffffffffffffffffff168273ffffffffffffffffffffffffffffffffffffffff161415611ef3576040517f08c379a0000000000000000000000000000000000000000000000000000000008152600401611eea90613c6a565b60405180910390fd5b611efe8383836125bf565b611f09600082611c76565b6001600360008573ffffffffffffffffffffffffffffffffffffffff1673ffffffffffffffffffffffffffffffffffffffff1681526020019081526020016000206000828254611f599190614048565b925050819055506001600360008473ffffffffffffffffffffffffffffffffffffffff1673ffffffffffffffffffffffffffffffffffffffff1681526020019081526020016000206000828254611fb09190613f67565b92505081905550816002600083815260200190815260200160002060006101000a81548173ffffffffffffffffffffffffffffffffffffffff021916908373ffffffffffffffffffffffffffffffffffffffff160217905550808273ffffffffffffffffffffffffffffffffffffffff168473ffffffffffffffffffffffffffffffffffffffff167fddf252ad1be2c89b69c2b068fc378daa952ba7f163c4a11628f55a4df523b3ef60405160405180910390a4505050565b6120838282604051806020016040528060008152506126d3565b5050565b6000600a60009054906101000a900473ffffffffffffffffffffffffffffffffffffffff16905081600a60006101000a81548173ffffffffffffffffffffffffffffffffffffffff021916908373ffffffffffffffffffffffffffffffffffffffff1602179055508173ffffffffffffffffffffffffffffffffffffffff168173ffffffffffffffffffffffffffffffffffffffff167f8be0079c531659141344cd1fd0a4f28419497f9722a3daafe3b4186f6b6457e060405160405180910390a35050565b8173ffffffffffffffffffffffffffffffffffffffff168373ffffffffffffffffffffffffffffffffffffffff1614156121bc576040517f08c379a00000000000000000000000000000000000000000000000000000000081526004016121b390613c8a565b60405180910390fd5b80600560008573ffffffffffffffffffffffffffffffffffffffff1673ffffffffffffffffffffffffffffffffffffffff16815260200190815260200160002060008473ffffffffffffffffffffffffffffffffffffffff1673ffffffffffffffffffffffffffffffffffffffff16815260200190815260200160002060006101000a81548160ff0219169083151502179055508173ffffffffffffffffffffffffffffffffffffffff168373ffffffffffffffffffffffffffffffffffffffff167f17307eab39ab6107e8899845ad3d59bd9653f200f220920489ca2b5937696c31836040516122ad9190613bad565b60405180910390a3505050565b6122c5848484611e0d565b6122d18484848461272e565b612310576040517f08c379a000000000000000000000000000000000000000000000000000000000815260040161230790613c0a565b60405180910390fd5b50505050565b6060600b805461232590614132565b80601f016020809104026020016040519081016040528092919081815260200182805461235190614132565b801561239e5780601f106123735761010080835404028352916020019161239e565b820191906000526020600020905b81548152906001019060200180831161238157829003601f168201915b5050505050905090565b606060008214156123f0576040518060400160405280600181526020017f30000000000000000000000000000000000000000000000000000000000000008152509050612550565b600082905060005b6000821461242257808061240b90614164565b915050600a8261241b9190613fbd565b91506123f8565b60008167ffffffffffffffff811115612464577f4e487b7100000000000000000000000000000000000000000000000000000000600052604160045260246000fd5b6040519080825280601f01601f1916602001820160405280156124965781602001600182028036833780820191505090505b5090505b60008514612549576001826124af9190614048565b9150600a856124be91906141ad565b60306124ca9190613f67565b60f81b818381518110612506577f4e487b7100000000000000000000000000000000000000000000000000000000600052603260045260246000fd5b60200101907effffffffffffffffffffffffffffffffffffffffffffffffffffffffffffff1916908160001a905350600a856125429190613fbd565b945061249a565b8093505050505b919050565b60007f01ffc9a7000000000000000000000000000000000000000000000000000000007bffffffffffffffffffffffffffffffffffffffffffffffffffffffff1916827bffffffffffffffffffffffffffffffffffffffffffffffffffffffff1916149050919050565b6125ca8383836128c5565b600073ffffffffffffffffffffffffffffffffffffffff168373ffffffffffffffffffffffffffffffffffffffff16141561260d57612608816128ca565b61264c565b8173ffffffffffffffffffffffffffffffffffffffff168373ffffffffffffffffffffffffffffffffffffffff161461264b5761264a8382612913565b5b5b600073ffffffffffffffffffffffffffffffffffffffff168273ffffffffffffffffffffffffffffffffffffffff16141561268f5761268a81612a80565b6126ce565b8273ffffffffffffffffffffffffffffffffffffffff168273ffffffffffffffffffffffffffffffffffffffff16146126cd576126cc8282612bc3565b5b5b505050565b6126dd8383612c42565b6126ea600084848461272e565b612729576040517f08c379a000000000000000000000000000000000000000000000000000000000815260040161272090613c0a565b60405180910390fd5b505050565b600061274f8473ffffffffffffffffffffffffffffffffffffffff16612e10565b156128b8578373ffffffffffffffffffffffffffffffffffffffff1663150b7a02612778611c02565b8786866040518563ffffffff1660e01b815260040161279a9493929190613b3f565b602060405180830381600087803b1580156127b457600080fd5b505af19250505080156127e557506040513d601f19601f820116820180604052508101906127e291906131f8565b60015b612868573d8060008114612815576040519150601f19603f3d011682016040523d82523d6000602084013e61281a565b606091505b50600081511415612860576040517f08c379a000000000000000000000000000000000000000000000000000000000815260040161285790613c0a565b60405180910390fd5b805181602001fd5b63150b7a0260e01b7bffffffffffffffffffffffffffffffffffffffffffffffffffffffff1916817bffffffffffffffffffffffffffffffffffffffffffffffffffffffff1916149150506128bd565b600190505b949350505050565b505050565b6008805490506009600083815260200190815260200160002081905550600881908060018154018082558091505060019003906000526020600020016000909190919091505550565b60006001612920846114a6565b61292a9190614048565b9050600060076000848152602001908152602001600020549050818114612a0f576000600660008673ffffffffffffffffffffffffffffffffffffffff1673ffffffffffffffffffffffffffffffffffffffff168152602001908152602001600020600084815260200190815260200160002054905080600660008773ffffffffffffffffffffffffffffffffffffffff1673ffffffffffffffffffffffffffffffffffffffff168152602001908152602001600020600084815260200190815260200160002081905550816007600083815260200190815260200160002081905550505b6007600084815260200190815260200160002060009055600660008573ffffffffffffffffffffffffffffffffffffffff1673ffffffffffffffffffffffffffffffffffffffff16815260200190815260200160002060008381526020019081526020016000206000905550505050565b60006001600880549050612a949190614048565b9050600060096000848152602001908152602001600020549050600060088381548110612aea577f4e487b7100000000000000000000000000000000000000000000000000000000600052603260045260246000fd5b906000526020600020015490508060088381548110612b32577f4e487b7100000000000000000000000000000000000000000000000000000000600052603260045260246000fd5b906000526020600020018190555081600960008381526020019081526020016000208190555060096000858152602001908152602001600020600090556008805480612ba7577f4e487b7100000000000000000000000000000000000000000000000000000000600052603160045260246000fd5b6001900381819060005260206000200160009055905550505050565b6000612bce836114a6565b905081600660008573ffffffffffffffffffffffffffffffffffffffff1673ffffffffffffffffffffffffffffffffffffffff168152602001908152602001600020600083815260200190815260200160002081905550806007600084815260200190815260200160002081905550505050565b600073ffffffffffffffffffffffffffffffffffffffff168273ffffffffffffffffffffffffffffffffffffffff161415612cb2576040517f08c379a0000000000000000000000000000000000000000000000000000000008152600401612ca990613d2a565b60405180910390fd5b612cbb81611c0a565b15612cfb576040517f08c379a0000000000000000000000000000000000000000000000000000000008152600401612cf290613c4a565b60405180910390fd5b612d07600083836125bf565b6001600360008473ffffffffffffffffffffffffffffffffffffffff1673ffffffffffffffffffffffffffffffffffffffff1681526020019081526020016000206000828254612d579190613f67565b92505081905550816002600083815260200190815260200160002060006101000a81548173ffffffffffffffffffffffffffffffffffffffff021916908373ffffffffffffffffffffffffffffffffffffffff160217905550808273ffffffffffffffffffffffffffffffffffffffff16600073ffffffffffffffffffffffffffffffffffffffff167fddf252ad1be2c89b69c2b068fc378daa952ba7f163c4a11628f55a4df523b3ef60405160405180910390a45050565b600080823b905060008111915050919050565b828054612e2f90614132565b90600052602060002090601f016020900481019282612e515760008555612e98565b82601f10612e6a57805160ff1916838001178555612e98565b82800160010185558215612e98579182015b82811115612e97578251825591602001919060010190612e7c565b5b509050612ea59190612ea9565b5090565b5b80821115612ec2576000816000905550600101612eaa565b5090565b6000612ed9612ed484613e76565b613e45565b905082815260208101848484011115612ef157600080fd5b612efc8482856140f0565b509392505050565b6000612f17612f1284613ea6565b613e45565b905082815260208101848484011115612f2f57600080fd5b612f3a8482856140f0565b509392505050565b600081359050612f51816142ab565b92915050565b600081359050612f66816142c2565b92915050565b600081359050612f7b816142d9565b92915050565b600081519050612f90816142d9565b92915050565b600082601f830112612fa757600080fd5b8135612fb7848260208601612ec6565b91505092915050565b600082601f830112612fd157600080fd5b8135612fe1848260208601612f04565b91505092915050565b600081359050612ff9816142f0565b92915050565b60006020828403121561301157600080fd5b600061301f84828501612f42565b91505092915050565b6000806040838503121561303b57600080fd5b600061304985828601612f42565b925050602061305a85828601612f42565b9150509250929050565b60008060006060848603121561307957600080fd5b600061308786828701612f42565b935050602061309886828701612f42565b92505060406130a986828701612fea565b9150509250925092565b600080600080608085870312156130c957600080fd5b60006130d787828801612f42565b94505060206130e887828801612f42565b93505060406130f987828801612fea565b925050606085013567ffffffffffffffff81111561311657600080fd5b61312287828801612f96565b91505092959194509250565b6000806040838503121561314157600080fd5b600061314f85828601612f42565b925050602061316085828601612f57565b9150509250929050565b6000806040838503121561317d57600080fd5b600061318b85828601612f42565b925050602061319c85828601612fea565b9150509250929050565b6000602082840312156131b857600080fd5b60006131c684828501612f57565b91505092915050565b6000602082840312156131e157600080fd5b60006131ef84828501612f6c565b91505092915050565b60006020828403121561320a57600080fd5b600061321884828501612f81565b91505092915050565b60006020828403121561323357600080fd5b600082013567ffffffffffffffff81111561324d57600080fd5b61325984828501612fc0565b91505092915050565b60006020828403121561327457600080fd5b600061328284828501612fea565b91505092915050565b60006132978383613ad5565b60208301905092915050565b6132ac8161407c565b82525050565b60006132bd82613efb565b6132c78185613f29565b93506132d283613ed6565b8060005b838110156133035781516132ea888261328b565b97506132f583613f1c565b9250506001810190506132d6565b5085935050505092915050565b6133198161408e565b82525050565b600061332a82613f06565b6133348185613f3a565b93506133448185602086016140ff565b61334d8161429a565b840191505092915050565b600061336382613f11565b61336d8185613f4b565b935061337d8185602086016140ff565b6133868161429a565b840191505092915050565b600061339c82613f11565b6133a68185613f5c565b93506133b68185602086016140ff565b80840191505092915050565b600081546133cf81614132565b6133d98186613f5c565b945060018216600081146133f4576001811461340557613438565b60ff19831686528186019350613438565b61340e85613ee6565b60005b8381101561343057815481890152600182019150602081019050613411565b838801955050505b50505092915050565b600061344e602b83613f4b565b91507f455243373231456e756d657261626c653a206f776e657220696e646578206f7560008301527f74206f6620626f756e64730000000000000000000000000000000000000000006020830152604082019050919050565b60006134b4603283613f4b565b91507f4552433732313a207472616e7366657220746f206e6f6e20455243373231526560008301527f63656976657220696d706c656d656e74657200000000000000000000000000006020830152604082019050919050565b600061351a602683613f4b565b91507f4f776e61626c653a206e6577206f776e657220697320746865207a65726f206160008301527f64647265737300000000000000000000000000000000000000000000000000006020830152604082019050919050565b6000613580601c83613f4b565b91507f4552433732313a20746f6b656e20616c7265616479206d696e746564000000006000830152602082019050919050565b60006135c0602483613f4b565b91507f4552433732313a207472616e7366657220746f20746865207a65726f2061646460008301527f72657373000000000000000000000000000000000000000000000000000000006020830152604082019050919050565b6000613626601983613f4b565b91507f4552433732313a20617070726f766520746f2063616c6c6572000000000000006000830152602082019050919050565b6000613666602c83613f4b565b91507f4552433732313a206f70657261746f7220717565727920666f72206e6f6e657860008301527f697374656e7420746f6b656e00000000000000000000000000000000000000006020830152604082019050919050565b60006136cc603883613f4b565b91507f4552433732313a20617070726f76652063616c6c6572206973206e6f74206f7760008301527f6e6572206e6f7220617070726f76656420666f7220616c6c00000000000000006020830152604082019050919050565b6000613732602a83613f4b565b91507f4552433732313a2062616c616e636520717565727920666f7220746865207a6560008301527f726f2061646472657373000000000000000000000000000000000000000000006020830152604082019050919050565b6000613798602983613f4b565b91507f4552433732313a206f776e657220717565727920666f72206e6f6e657869737460008301527f656e7420746f6b656e00000000000000000000000000000000000000000000006020830152604082019050919050565b60006137fe602083613f4b565b91507f4552433732313a206d696e7420746f20746865207a65726f20616464726573736000830152602082019050919050565b600061383e602c83613f4b565b91507f4552433732313a20617070726f76656420717565727920666f72206e6f6e657860008301527f697374656e7420746f6b656e00000000000000000000000000000000000000006020830152604082019050919050565b60006138a4602083613f4b565b91507f4f776e61626c653a2063616c6c6572206973206e6f7420746865206f776e65726000830152602082019050919050565b60006138e4602983613f4b565b91507f4552433732313a207472616e73666572206f6620746f6b656e2074686174206960008301527f73206e6f74206f776e00000000000000000000000000000000000000000000006020830152604082019050919050565b600061394a602f83613f4b565b91507f4552433732314d657461646174613a2055524920717565727920666f72206e6f60008301527f6e6578697374656e7420746f6b656e00000000000000000000000000000000006020830152604082019050919050565b60006139b0602183613f4b565b91507f4552433732313a20617070726f76616c20746f2063757272656e74206f776e6560008301527f72000000000000000000000000000000000000000000000000000000000000006020830152604082019050919050565b6000613a16603183613f4b565b91507f4552433732313a207472616e736665722063616c6c6572206973206e6f74206f60008301527f776e6572206e6f7220617070726f7665640000000000000000000000000000006020830152604082019050919050565b6000613a7c602c83613f4b565b91507f455243373231456e756d657261626c653a20676c6f62616c20696e646578206f60008301527f7574206f6620626f756e647300000000000000000000000000000000000000006020830152604082019050919050565b613ade816140e6565b82525050565b613aed816140e6565b82525050565b6000613aff8286613391565b9150613b0b8285613391565b9150613b1782846133c2565b9150819050949350505050565b6000602082019050613b3960008301846132a3565b92915050565b6000608082019050613b5460008301876132a3565b613b6160208301866132a3565b613b6e6040830185613ae4565b8181036060830152613b80818461331f565b905095945050505050565b60006020820190508181036000830152613ba581846132b2565b905092915050565b6000602082019050613bc26000830184613310565b92915050565b60006020820190508181036000830152613be28184613358565b905092915050565b60006020820190508181036000830152613c0381613441565b9050919050565b60006020820190508181036000830152613c23816134a7565b9050919050565b60006020820190508181036000830152613c438161350d565b9050919050565b60006020820190508181036000830152613c6381613573565b9050919050565b60006020820190508181036000830152613c83816135b3565b9050919050565b60006020820190508181036000830152613ca381613619565b9050919050565b60006020820190508181036000830152613cc381613659565b9050919050565b60006020820190508181036000830152613ce3816136bf565b9050919050565b60006020820190508181036000830152613d0381613725565b9050919050565b60006020820190508181036000830152613d238161378b565b9050919050565b60006020820190508181036000830152613d43816137f1565b9050919050565b60006020820190508181036000830152613d6381613831565b9050919050565b60006020820190508181036000830152613d8381613897565b9050919050565b60006020820190508181036000830152613da3816138d7565b9050919050565b60006020820190508181036000830152613dc38161393d565b9050919050565b60006020820190508181036000830152613de3816139a3565b9050919050565b60006020820190508181036000830152613e0381613a09565b9050919050565b60006020820190508181036000830152613e2381613a6f565b9050919050565b6000602082019050613e3f6000830184613ae4565b92915050565b6000604051905081810181811067ffffffffffffffff82111715613e6c57613e6b61426b565b5b8060405250919050565b600067ffffffffffffffff821115613e9157613e9061426b565b5b601f19601f8301169050602081019050919050565b600067ffffffffffffffff821115613ec157613ec061426b565b5b601f19601f8301169050602081019050919050565b6000819050602082019050919050565b60008190508160005260206000209050919050565b600081519050919050565b600081519050919050565b600081519050919050565b6000602082019050919050565b600082825260208201905092915050565b600082825260208201905092915050565b600082825260208201905092915050565b600081905092915050565b6000613f72826140e6565b9150613f7d836140e6565b9250827fffffffffffffffffffffffffffffffffffffffffffffffffffffffffffffffff03821115613fb257613fb16141de565b5b828201905092915050565b6000613fc8826140e6565b9150613fd3836140e6565b925082613fe357613fe261420d565b5b828204905092915050565b6000613ff9826140e6565b9150614004836140e6565b9250817fffffffffffffffffffffffffffffffffffffffffffffffffffffffffffffffff048311821515161561403d5761403c6141de565b5b828202905092915050565b6000614053826140e6565b915061405e836140e6565b925082821015614071576140706141de565b5b828203905092915050565b6000614087826140c6565b9050919050565b60008115159050919050565b60007fffffffff0000000000000000000000000000000000000000000000000000000082169050919050565b600073ffffffffffffffffffffffffffffffffffffffff82169050919050565b6000819050919050565b82818337600083830152505050565b60005b8381101561411d578082015181840152602081019050614102565b8381111561412c576000848401525b50505050565b6000600282049050600182168061414a57607f821691505b6020821081141561415e5761415d61423c565b5b50919050565b600061416f826140e6565b91507fffffffffffffffffffffffffffffffffffffffffffffffffffffffffffffffff8214156141a2576141a16141de565b5b600182019050919050565b60006141b8826140e6565b91506141c3836140e6565b9250826141d3576141d261420d565b5b828206905092915050565b7f4e487b7100000000000000000000000000000000000000000000000000000000600052601160045260246000fd5b7f4e487b7100000000000000000000000000000000000000000000000000000000600052601260045260246000fd5b7f4e487b7100000000000000000000000000000000000000000000000000000000600052602260045260246000fd5b7f4e487b7100000000000000000000000000000000000000000000000000000000600052604160045260246000fd5b6000601f19601f8301169050919050565b6142b48161407c565b81146142bf57600080fd5b50565b6142cb8161408e565b81146142d657600080fd5b50565b6142e28161409a565b81146142ed57600080fd5b50565b6142f9816140e6565b811461430457600080fd5b5056fea264697066735822122000de5bd64ea9c86763caabacbad66d2934ce4c30e8038e71a10f01efec74002164736f6c63430008000033",
  "linkReferences": {},
  "deployedLinkReferences": {}
}